:020000021000EC
:10F000000C9446F80C9465F80C9465F80C9465F82B
:10F010000C9465F80C9465F80C9465F80C9465F8FC
:10F020000C9465F80C9465F80C9465F80C9465F8EC
:10F030000C9465F80C9465F80C9465F80C9465F8DC
:10F040000C9465F80C9465F80C9465F80C9465F8CC
:10F050000C9465F80C9465F80C9465F80C9465F8BC
:10F060000C9465F80C9465F80C9465F80C9465F8AC
:10F070000C9465F80C9465F80C9465F80C9465F89C
:10F080000C9465F80C9465F80C9465F811241FBE77
:10F09000CFEFD0E1DEBFCDBF11E0A0E0B1E0E4E012
:10F0A000F9EF01E00BBF02C007900D92A230B1074B
:10F0B000D9F712E0A2E0B1E001C01D92AD30B10776
:10F0C000E1F70E9477F90C9480FC0C9400F8982FDB
:10F0D00080910201813019F0823029F008955D9B02
:10F0E000FECF9CB9089580919B0085FFFCCF909343
:10F0F0009C0008951F93982F9595959595959595B6
:10F10000905D8F708A3054F4182F105D892F0E9403
:10F1100067F8812F0E9467F81F910895182F195AD8
:10F12000892F0E9467F8812F0E9467F81F91089528
:10F13000EF92FF920F931F9380910201813069F14A
:10F14000823031F080E01F910F91FF90EF90089591
:10F15000EE24FF24870180919B0087FD17C008944F
:10F16000E11CF11C011D111D81E4E81682E4F80682
:10F170008FE0080780E0180770F3E0910401F09138
:10F180000501099580919B0087FFE9CF80919C0044
:10F190001F910F91FF90EF900895EE24FF248701B7
:10F1A0005F9915C00894E11CF11C011D111D81E43B
:10F1B000E81682E4F8068FE0080780E0180780F37D
:10F1C000E0910401F091050109955F9BEBCF8CB1B3
:10F1D0001F910F91FF90EF9008951F930E9498F850
:10F1E000182F0E9467F8113634F410330CF01053C6
:10F1F000812F1F9108951755812F1F9108951F93F7
:10F200000E94EDF8182F0E94EDF81295107F810FE3
:10F210001F910895982F20910201992339F02130F0
:10F2200031F0223049F091509923C9F708955F9B3E
:10F23000FECF8CB19150F8CF80919B0087FFFCCF1F
:10F2400080919C009150F0CF1F93182F0E9498F846
:10F25000803281F0809103018F5F809303018530BC
:10F2600011F01F910895E0910401F09105010995B5
:10F270001F91089584E10E9467F8812F0E9467F82A
:10F2800080E10E9467F81F9108950E9498F88032EB
:10F2900071F0809103018F5F80930301853009F045
:10F2A0000895E0910401F09105010995089584E124
:10F2B0000E9467F880E10E9467F8089540E951E0F4
:10F2C0008823A1F0C59A28EE33E0FA013197F1F7CF
:10F2D00021503040D1F7C59828EE33E0FA0131973C
:10F2E000F1F721503040D1F7815061F70895CF9266
:10F2F000DF92EF92FF920F931F93CF93DF93000063
:10F30000809161008F7780936100809161008F7B95
:10F310008093610080916200806880936200809198
:10F32000620080648093620081E08093020180E14A
:10F3300089B9109290001BB886E08093950088E10F
:10F340008AB9BD9A82E00E945EF9FF24F3940E947C
:10F3500098F88033C9F18133D1F1803409F457C072
:10F36000813409F45DC0823409F46BC0853409F43A
:10F370006EC0803549F1823539F1813529F1853505
:10F3800009F46BC0863509F473C0843609F48CC067
:10F39000843709F4F2C0853709F456C1863709F479
:10F3A0004CC0813209F469C1809103018F5F809361
:10F3B0000301853061F6E0910401F09105010995A2
:10F3C0000E9498F8803339F60E9445F9C0CF0E9418
:10F3D00098F8803249F784E10E9467F881E40E943E
:10F3E00067F886E50E9467F882E50E9467F880E288
:10F3F0000E9467F889E40E9467F883E50E9467F835
:10F4000080E50E9467F880E10E9467F8A0CF0E9423
:10F4100098F88638C8F20E9498F80E9445F997CF6C
:10F420000E9498F88038E1F1813809F409C18238E6
:10F4300009F41FC1883909F49CC080E00E9424F9B6
:10F4400086CF84E10E940AF90E9445F980CF85E0C9
:10F450000E940AF90E9445F97ACF0E9498F8809399
:10F4600006010E9498F8809307010E9445F96FCF2A
:10F470000E9498F8803339F083E00E940AF980E016
:10F480000E9424F964CF0E9498F80E9498F8182FDF
:10F490000E9498F8112309F4BFC1113009F433C157
:10F4A00082E00E9424F953CF0E9498F880930902C9
:10F4B0000E9498F88093080280910C028E7F8093BE
:10F4C0000C020E9498F8853409F421C18091080249
:10F4D00090910902892B89F000E010E00E9498F8D1
:10F4E000F801E85FFE4F80830F5F1F4F8091080295
:10F4F000909109020817190788F30E9498F8803242
:10F5000009F052CF80910C0280FF13C120910601B7
:10F5100030910701220F331F30930701209306011A
:10F520008091080290910902892BE1F000E010E03F
:10F53000F801E85FFE4FC90160810E9473FC2091D1
:10F540000601309107012F5F3F4F30930701209351
:10F5500006010F5F1F4F8091080290910902081762
:10F56000190730F384E10E9467F880E10E9467F890
:10F57000EECE83E00E9424F9EACE0E9498F88093B0
:10F5800009020E9498F880930802209106013091A8
:10F59000070137FDC2C080910C028D7F80930C0261
:10F5A000220F331F30930701209306010E9498F821
:10F5B000853409F4B8C080910C028E7F80930C02D0
:10F5C0000E9498F8803209F0C2CE84E10E9467F868
:10F5D0008091080290910902892B09F446C000E04D
:10F5E00010E0209106013091070117C0F9018491C4
:10F5F0000E9467F820910601309107012F5F3F4F6D
:10F6000030930701209306010F5F1F4F809108027E
:10F61000909109020817190740F580910C0280FDAE
:10F6200062C081FFE3CFC901A0E0B0E0805090400C
:10F63000AF4FBF4FABBFFC0187910E9467F8DACF95
:10F6400081E00E9424F983CE0E9498F8803209F06C
:10F65000ABCE84E10E9467F88EE10E9467F887E9EB
:10F660000E9467F882E00E9467F880E10E9467F8D4
:10F670006ECE80E10E9424F96ACE0E9498F8813211
:10F6800009F065CE0E9498F8813209F060CEBD9AEB
:10F69000C59810920A028AE00E9467F88DE00E94E5
:10F6A00067F88AE30E9467F880E20E9467F80E9488
:10F6B00098F8182F0E9467F8143709F4BAC0123767
:10F6C00009F4C3C0173709F4D6C0153709F4A8C028
:10F6D000123609F4E7C01A36F1F6E0910401F09110
:10F6E00005010995D8CFC9010E946BFC0E9467F8FB
:10F6F00020910601309107012F5F3F4F30930701A2
:10F700002093060181CF87E90E9424F920CE8091C1
:10F710000C02816080930C02D9CE80910C02826031
:10F7200080930C023DCF80910C02816080930C028B
:10F7300047CF809107018823880F880B8F21809302
:10F740000B028BBF8091060190910701880F991FD2
:10F7500090930701809306018091080280FF09C001
:10F76000809108029091090201969093090280937A
:10F770000802F894E199FECF1127E0910601F0917B
:10F780000701C8E0D1E08091080290910902103091
:10F7900091F40091680001700130D9F303E0009307
:10F7A0006800E8950091680001700130D9F301E12B
:10F7B00000936800E8950990199000916800017025
:10F7C0000130D9F301E000936800E89513951038F3
:10F7D00098F011270091680001700130D9F305E01D
:10F7E00000936800E8950091680001700130D9F33A
:10F7F00001E100936800E8953296029709F0C7CFBF
:10F80000103011F00296E5CF112484E10E9467F8D0
:10F8100080E10E9467F89BCD8EE10E9424F997CD8C
:10F820000E9498F80E9467F80E9498F80E9467F872
:10F83000F7CFB59B05C0C59881E30E9467F82BCF31
:10F84000C59A80E30E9467F826CF0E9498F80E942C
:10F8500067F80E94FFF8182F0E94FFF8082F8DE329
:10F860000E9467F8F12EEE24F701E00FF11D808170
:10F870000E947AF810CF0E9498F80E9467F80E94C0
:10F88000FFF8182F0E94FFF8082F0E9498F80E9496
:10F8900067F80E94FFF8D12ECC24F601E00FF11D8D
:10F8A0008083F9CE82E60E9467F885E70E9467F8B8
:10F8B00083E70E9467F880E885BF10926D00109280
:10F8C0006C0080E091E1FC01819180E091E1309752
:10F8D000D1F3CF01F8CFE199FECF9FBB8EBBE09A69
:10F8E00099278DB30895262FE199FECF9FBB8EBB3C
:10F8F0002DBB0FB6F894E29AE19A0FBE01960895D7
:04F90000F894FFCFA9
:02F90400800081
:040000031000F000F9
:00000001FF
