:103E00001F92CDB7DEB711248FEF94E09EBF8DBF18
:103E100084B714BE982F9D7009F0CAD085E08EBD7E
:103E200082E08BB988E18AB986E080BD85E189B9F5
:103E30008EE0ABD0B89A26E08CE39BEF50E841E0EF
:103E40009DBD8CBD58BF08B607FEFDCF38B33427E3
:103E500038BBA8952150A1F7812C912C93E0F92E25
:103E6000EE24E39425E0D22E31E1C32E87D08134B5
:103E700079F484D089838DD08981823811F482E0ED
:103E800005C0813811F486E001C083E073D06FC0B3
:103E9000823411F484E103C0853419F485E081D0C3
:103EA00066C0853541F46AD0882E68D0912C982A56
:103EB000880C991C5BC0863521F484E072D080E0C8
:103EC000E5CF843609F036C059D058D0B82E56D038
:103ED000A82E00E011E052D0F80181938F01BE12AC
:103EE000FACF57D0F5E4AF1201C0FFCFF401F7BE0F
:103EF000E89507B600FCFDCFB401A0E0B1E02C913D
:103F00001296AD0141505109FA01808130E0382B01
:103F1000FB010901E7BEE89511246E5F7F4FBA12DD
:103F2000EECFF401D7BEE89507B600FCFDCFC7BEC3
:103F3000E8951DC0843769F421D020D0B82E1ED05A
:103F400028D08401F80185918F0114D0BA94D1F75B
:103F50000EC0853739F41DD08EE10CD084E90AD02B
:103F600084E094CF813511F488E00FD012D080E145
:103F700001D07CCF5D9BFECF8CB908955F9BFECFB7
:103F80005C9901C0A8958CB1089598E191BD81BD5F
:103F90000895F4DF803219F088E0F7DFFFCF84E185
:103FA000E9CFCF93C82FEADFC150E9F7CF91F1CF26
:0C3FB000282E80E0EADFE0E0FF27099403
:023FFE000206B9
:0400000300003E00BB
:00000001FF
