:020000021000EC
:10FC000011248FEF90E19EBF8DBF94B714BE892F52
:10FC10008D7011F0892F08D185E08EBD82E08BB9FF
:10FC200088E18AB986E08093950080E189B98EE009
:10FC3000E7D0BD9A96E020E33CEF54E040E23DBDC2
:10FC40002CBD56BF06B602FEFDCF88B3842788BB05
:10FC5000A8959150A1F7CC24DD2433E0932E88247D
:10FC6000839425E0722E91E1A92EC3D0813469F4EA
:10FC7000C0D0182FC9D0123809F4ADC0113811F412
:10FC800086E001C083E0B1D0ADC0823411F484E1DC
:10FC900003C0853419F485E0BFD0A4C08535A1F434
:10FCA000A8D0082F10E0A5D0E82EFF24FE2CEE24CB
:10FCB000E02AF12A8F2D881F8827881F8BBFEE0C22
:10FCC000FF1CA2D067018EC0863521F484E0A4D049
:10FCD00080E0D9CF843609F057C08BD090E0182F40
:10FCE000002787D090E0082B192B83D0B82EE8018D
:10FCF000E12CA1E0FA2E7DD0F70181937F012197BD
:10FD0000D1F782D0F5E4BF1689F4E601E12CF1E0E9
:10FD1000FF2E08C0CE012196F70161917F0192D09C
:10FD20000150104001151105A9F75CC0F601909231
:10FD30006800E8958091680080FDFCCFB801A601BD
:10FD4000A0E0B1E02C9130E011968C91119790E0F9
:10FD5000982F8827822B932B1296FA010C01809200
:10FD60006800E89511244E5F5F4F6250704051F774
:10FD7000F60170926800E8958091680080FDFCCFE4
:10FD8000A0926800E8952EC08437F1F432D090E05C
:10FD9000D82FCC272ED090E0C82BD92B2AD0182FC3
:10FDA00033D0153449F48601C8010F5F1F4F42D08C
:10FDB0001CD02197C9F716C08601F80187918F01E1
:10FDC00014D02197D1F70EC0853739F41DD08EE1BC
:10FDD0000CD087E90AD082E056CF813511F488E053
:10FDE0000FD012D080E101D040CF5D9BFECF8CB907
:10FDF00008955F9BFECF5C9901C0A8958CB10895D2
:10FE000098E191BD81BD0895F4DF803219F088E05A
:10FE1000F7DFFFCF84E1E9CF1F93182FEADF1150FE
:10FE2000E9F7F2DF1F910895282E80E0E9DFE0E096
:10FE3000FF270994E199FECF9FBB8EBBE09A9927DB
:10FE40008DB30895262FE199FECF9FBB8EBB2DBBAE
:0EFE50000FB6F894E29AE19A0FBE019608955B
:02FFFE000206F9
:040000031000FC00ED
:00000001FF
