:103E00001F92CDB7DEB711248FE594E09EBF8DBF22
:103E100084B714BE982F9D7009F0CBD085E08EBD7D
:103E200082E08BB988E18AB986E880BD85E189B9ED
:103E30008EE0ACD0B89A26E08CE39BEF54E041E0F2
:103E40009DBD8CBD58BF08B602FEFDCF38B33427E8
:103E500038BBA8952150A1F7812C912CFF24F39415
:103E600095E0E92E21E1D22E8AD08134B9F487D0B1
:103E7000898390D08981823811F482E00DC0813825
:103E800051F486E009C0853709F06DC083D08EE11A
:103E900072D084E970D083E06ED06AC0823411F4AD
:103EA00084E103C0853419F485E07CD061C0853598
:103EB00041F465D0882E63D0912C982A880C991CE7
:103EC00056C0863521F484E06DD080E0E5CF84369D
:103ED00009F039C054D053D0C82E51D0B82E00E6C6
:103EE00010E080E6C80E4BD0F80181938F01CE120E
:103EF000FACF50D0F5E4BF1201C0FFCF83E0F40148
:103F000087BFE89507B600FCFDCFB401A0E6B0E09E
:103F10002C911296AD0141505109FA01808130E097
:103F2000382BFB010901F7BEE89511246E5F7F4F26
:103F3000CA12EECFF401E7BEE89507B600FCFDCF4C
:103F4000D7BEE89515C0843709F09DCF18D017D09B
:103F5000C82E15D01FD08401F80185918F010BD098
:103F6000CA94D1F705C0813511F488E00FD012D082
:103F700080E101D079CF5D9BFECF8CB908955F9B26
:103F8000FECF5C9901C0A8958CB1089598E191BDD0
:103F900081BD0895F4DF803219F088E0F7DFFFCFAC
:103FA00084E1E9CFCF93C82FEADFC150E9F7CF9181
:0E3FB000F1CF282E80E0EADFE0E0FF27099441
:023FFE000206B9
:0400000300003E00BB
:00000001FF
