:107E00001F92CDB7DEB711248FE598E09EBF8DBFDE
:107E100084B714BE982F9D7009F0CBD085E08EBD3D
:107E200082E08BB988E18AB986E880BD8BE089B9A8
:107E30008EE0ACD0B89A26E08DE59DEF54E041E0AD
:107E40009DBD8CBD58BF08B602FEFDCF38B33427A8
:107E500038BBA8952150A1F7812C912C93E0F92EE5
:107E6000EE24E39425E0D22E31E1C32E88D0813474
:107E700071F485D089838ED08981823809F471C0EC
:107E8000813811F486E001C083E075D071C082347E
:107E900011F484E103C0853419F485E083D068C00F
:107EA000853541F46CD0882E6AD0912C982A880CA4
:107EB000991C5DC0863521F484E074D080E0E5CF64
:107EC000843609F038C05BD05AD0B82E58D0A82ECE
:107ED00000E610E080E6B80E52D0F80181938F01E1
:107EE000BE12FACF57D0F5E4AF1201C0FFCFF401B4
:107EF000F7BEE89507B600FCFDCFB401A0E6B0E000
:107F00002C911296AD0141505109FA01808130E067
:107F1000382BFB010901E7BEE89511246E5F7F4F06
:107F2000BA12EECFF401D7BEE89507B600FCFDCF3C
:107F3000C7BEE8951DC0843769F421D020D0B82E83
:107F40001ED028D08401F80185918F0114D0BA94F5
:107F5000D1F70EC0853739F41DD08EE10CD085E9FC
:107F60000AD082E092CF813511F488E00FD012D090
:107F700080E101D07BCF5D9BFECF8CB908955F9BE4
:107F8000FECF5C9901C0A8958CB1089598E191BD90
:107F900081BD0895F4DF803219F088E0F7DFFFCF6C
:107FA00084E1E9CFCF93C82FEADFC150E9F7CF9141
:0E7FB000F1CF282E80E0EADFE0E0FF27099401
:027FFE00020679
:0400000300007E007B
:00000001FF
