:103800000C942A1C0C94471C0C94471C0C94471CC9
:103810000C94471C0C94471C0C94471C0C94471C9C
:103820000C94471C0C94471C0C94471C0C94471C8C
:103830000C94471C0C94471C0C94471C0C94471C7C
:103840000C94471C0C94471C0C94471C0C94471C6C
:103850000C94471C11241FBECFE5D4E0DEBFCDBFC2
:1038600010E0A0E6B0E0E2ECFEE302C005900D92AD
:10387000A236B107D9F711E0A2E6B0E001C01D926F
:10388000AD36B107E1F70E94FD1C0C945F1F0C944C
:10389000001C982F9595959595959595905D8F70B1
:1038A0008A3044F0895A5D9BFECF9CB95D9BFECF68
:1038B0008CB90895805DF7CF5D9BFECF8CB90895DC
:1038C000EF92FF920F931F93EE24FF2487015F99DD
:1038D00015C00894E11CF11C011D111D81E4E816BE
:1038E00082E4F8068FE0080780E0180780F3E09193
:1038F0006400F091650009955F9BEBCF8CB11F913F
:103900000F91FF90EF9008950E94601C5D9BFECF89
:103910008CB9813624F480330CF080530895875598
:1039200008951F930E94841C182F0E94841C1295D6
:10393000107F810F1F9108951F93182F882321F066
:103940000E94601C1150E1F71F9108951F93182FDA
:103950000E94601C803249F0809163008F5F8093E9
:103960006300853079F01F9108955D9BFECF84E15F
:103970008CB95D9BFECF1CB95D9BFECF80E18CB9FD
:103980001F910895E0916400F091650009951F91E1
:1039900008950E94601C803241F0809163008F5F27
:1039A00080936300853051F008955D9BFECF84E1E4
:1039B0008CB95D9BFECF80E18CB90895E0916400E5
:1039C000F09165000995089540E951E08823A1F040
:1039D000959A28EE33E0FA013197F1F72150304003
:1039E000D1F7959828EE33E0FA013197F1F721509D
:1039F0003040D1F7815061F708952F923F924F9256
:103A00005F926F927F928F929F92AF92BF92CF926E
:103A1000DF92EF92FF920F931F93CF93DF930000FB
:103A200010BC80E189B988E18AB986E880BD8D9AA9
:103A300081E00E94E41CB4E19B2EAEE18A2EF4E901
:103A40007F2EE3E06E2E70E1572E4424439461E410
:103A5000362E56E5252E0E94601C8033B1F181334D
:103A6000B9F1803409F459C0813409F45FC082345B
:103A700009F46DC0853409F470C0803531F18235A8
:103A800021F1813511F1853509F46DC0863509F4D0
:103A900075C0843609F48EC0843709F4F4C08537C4
:103AA00009F45DC1863709F44EC0809163008F5FD1
:103AB00080936300853079F6E0916400F0916500B1
:103AC00009950E94601C803351F60E94C91CC3CF27
:103AD0000E94601C803249F75D9BFECF9CB85D9BC5
:103AE000FECF3CB85D9BFECF2CB85D9BFECF82E540
:103AF0008CB95D9BFECF80E28CB95D9BFECF89E4E3
:103B00008CB95D9BFECF83E58CB95D9BFECF80E5D4
:103B10008CB95D9BFECF5CB89ECF0E94601C86383E
:103B2000A0F20E94601C0E94C91C95CF0E94601CDC
:103B3000803809F4A4C0813809F40DC1823809F431
:103B400023C1883999F180E00E94A61C84CF84E1CA
:103B50000E949C1C0E94C91C7ECF85E00E949C1C78
:103B60000E94C91C78CF0E94601C809366000E944E
:103B7000601C809367000E94C91C6DCF0E94601C6E
:103B8000803339F083E00E949C1C80E00E94A61CD8
:103B900062CF0E94601C0E94601C182F0E94601C53
:103BA000112309F473C1113009F4F2C083E00E94BB
:103BB000A61C51CF0E94601C809369010E94601C6A
:103BC0008093680180916C018E7F80936C010E94CC
:103BD000601C853409F4E0C080916801909169010E
:103BE000892B89F000E010E00E94601CF801E85980
:103BF000FF4F80830F5F1F4F809168019091690193
:103C00000817190788F30E94601C803209F04DCF15
:103C100080916C0180FFCCC02091660030916700DC
:103C2000220F331F30936700209366008091680154
:103C300090916901892BE1F000E010E0F801E8596A
:103C4000FF4FC90160810E94521F20916600309190
:103C500067002F5F3F4F30936700209366000F5F30
:103C60001F4F80916801909169010817190730F37F
:103C70005D9BFECF9CB85D9BFECF5CB8ECCE82E036
:103C80000E94A61CE8CE0E94601C809369010E94DD
:103C9000601C809368018091660090916700880F96
:103CA000991F90936700809366000E94601C853482
:103CB00009F478C080916C018E7F80936C010E9422
:103CC000601C803209F0C7CE5D9BFECF9CB8C090CF
:103CD0006801D0906901C114D10439F180916C015F
:103CE000BB24B394B82292E0A92EA822EE24FF248C
:103CF0000FC0E0916600F09167003196F093670085
:103D0000E09366000894E11CF11CEC14FD0468F4D7
:103D1000BB2081F4AA2069F7E0916600F09167006A
:103D200084915D9BFECF8CB9E8CF5D99F4CE5D9B0D
:103D3000FCCFF1CE0091660010916700C8010E948F
:103D40004A1F5D9BFECF8CB90F5F1F4F109367001A
:103D500000936600D7CF81E00E94A61C7CCE0E9413
:103D6000601C803209F0A1CE5D9BFECF9CB85D9BAC
:103D7000FECF8CB85D9BFECF7CB85D9BFECF6CB850
:103D80005D9BFECF5CB867CE80E10E94A61C63CE2F
:103D900084E90E94A61C5FCE80916C0181608093B3
:103DA0006C011ACF80916C01816080936C0187CF88
:103DB000809167008823880F880B842180936B0192
:103DC0008091660090916700880F991F909367001B
:103DD000809366008091680180FF09C0809168012E
:103DE0009091690101969093690180936801F8941C
:103DF000E199FECF1127E0916600F0916700C8E6D7
:103E0000D0E08091680190916901103091F40091A7
:103E1000570001700130D9F303E000935700E89593
:103E20000091570001700130D9F301E10093570070
:103E3000E895099019900091570001700130D9F36D
:103E400001E000935700E8951395103498F011277E
:103E50000091570001700130D9F305E0009357003D
:103E6000E8950091570001700130D9F301E100930A
:103E70005700E8953296029709F0C7CF103011F03D
:103E80000296E5CF11245D9BF3CEF4CE8EE10E9425
:103E9000A61CE1CDE199FECF9FBB8EBBE09A99278E
:103EA0008DB30895262FE199FECF9FBB8EBB2DBB0E
:103EB0000FB6F894E29AE19A0FBE01960895F8942D
:023EC000FFCF32
:023EC20080007E
:0400000300003800C1
:00000001FF
